:0B0184003F065B4F666D7D077F6F77C5
:04018F00020A000060
:10009A00750C00750D017C037DE8ED1DAA04700145
:1000AA001C4A6076E4FFEFC3940850EEEFB40800F0
:1000BA00505D9000C3F82828730200DB0200E302B7
:1000CA0000EB0200F30200FB02010302010B020132
:1000DA0013C2A4C2A3C2A28036D2A2C2A4C2A3805F
:1000EA002EC2A2D2A3C2A48026D2A3D2A2C2A48024
:1000FA001EC2A3C2A2D2A48016D2A2C2A3D2A48034
:10010A000EC2A2D2A4D2A38006D2A4D2A3D2A2E5BE
:0A011A000B90018493F5800F808C98
:0101240022B8
:10017400438901758CFC758A18D2A9D2AFD28C221E
:0500030012017480FEF3
:03000B00020125CA
:10012500C0E0C083C082C0D075D000C000C002C08E
:0501350004C005C00735
:10013A00758CFC758A180509E50970020508B4E88A
:10014A0016E508B40311750800750900050BE50BDF
:07015A007002050A12009A71
:10016100D007D005D004D002D000D0D0D082D08327
:03017100D0E032A9
:0300000002000EED
:0C000E00787FE4F6D8FD75810D020055E6
:10001A00020003E493A3F8E493A34003F68001F2F9
:10002A0008DFF48029E493A3F85407240CC8C333E7
:10003A00C4540F4420C8834004F456800146F6DFB6
:10004A00E4800B010204081020408090018FE47EB6
:10005A00019360BCA3FF543F30E509541FFEE493AB
:10006A00A360010ECF54C025E060A840B8E493A372
:10007A00FAE493A3F8E493A3C8C582C8CAC583CA9D
:10008A00F0A3C8C582C8CAC583CADFE9DEE780BE55
:01019300006B
:00000001FF
