:10013F0008087FBFDFEFF7FBFDDE081000003E4130
:04014F0041413E00EC
:040154007F647E0046
:0B015800EF1FAC0670011E4C70F62279
:07016300D2AFD2A8D288221E
:07016A00D2AFD2AAD28A2213
:1000F900C2B6C2B5E4FEEFC4131313540124FF9230
:10010900B4EF25E0FFD2B60000C2B60EBE08E7D2B2
:05011900B50000C2B5B5
:01011E0022BE
:0800060012016312016A80FE81
:0300030002011FD8
:10011F00C0E0C0D075D000C004C006C007120154A3
:10012F0020B202B2A0D007D006D004D0D0D0E03297
:030013000200A246
:1000A200C0E0C0D075D000C000C004C006C00712B6
:0500B200015420B335EC
:1000B70075807F75190075180074082518F8E6F51E
:1000C7008074102518F8E6FF1200F9120154E4FFB6
:1000D7001200F90518E518C3940840DD0519E5195C
:0500E700C3946440D148
:0D00EC00D007D006D004D000D0D0D0E03234
:03000000020016E5
:0C001600787FE4F6D8FD75811902005DCA
:10002200020006E493A3F8E493A34003F68001F2EE
:1000320008DFF48029E493A3F85407240CC8C333DF
:10004200C4540F4420C8834004F456800146F6DFAE
:10005200E4800B010204081020408090013FE47EFE
:10006200019360BCA3FF543F30E509541FFEE493A3
:10007200A360010ECF54C025E060A840B8E493A36A
:10008200FAE493A3F8E493A3C8C582C8CAC583CA95
:10009200F0A3C8C582C8CAC583CADFE9DEE780BE4D
:0101530000AB
:00000001FF
