:0B034E003F065B4F666D7D077F6F77F9
:0803590002080000020A000086
:0B034300EF1FAC0670011E4C70F6228C
:040126008E0C8F0D9F
:10012A00E4F50EF50FE50E6003020210E50F146008
:10013A002214603614604A14606B1470030201D1F1
:10014A0024056003020210C2A4C2A3C2A2AE0CAF6D
:10015A000D8028D2A2C2A4C2A3AE0CAF0D7C007D32
:10016A000A1200037C007D068050D2A3D2A2C2A448
:10017A00AE0CAF0D7C007D3C1200037C007D0A8032
:10018A0039C2A3C2A2D2A4AE0CAF0D7C027D581212
:10019A0000037C007D3C1200037E007F0ACFCDCF96
:1001AA00CECCCE8015C2A2D2A4D2A3AE0CAF0D7C07
:1001BA000E7D101200037C007D0A120003744E2D7E
:1001CA00F58274033C8039D2A4D2A3D2A2AE0CAF7A
:1001DA000DE4FCFD7BA07A8CF9F81202BBE47B10DB
:1001EA007A0EF9F81202BBAC00AD01AE02AF03E41D
:1001FA007B0AFAF9F81202BB744E2BF58274033AA1
:10020A00F583E493F5807F057E00120343E4F580CD
:10021A00050FE50F7002050EC39406E50E94005013
:04022A000302012F9B
:01022E0022AD
:10033300438901758C3C758AAFD2A9D2AFD28C2286
:1002FF00120333308D10C28D050BE50B7002050A0A
:10030F00758C3C758AAFE50B6414450A700D0509B1
:10031F00E50970020508E4F50AF50BAF09AE0812FE
:04032F00012680CF54
:0300000002022FCA
:0C022F00787FE4F6D8FD75810F0202769E
:10000300BC000BBE0029EF8DF084FFADF022E4CCE1
:10001300F875F008EF2FFFEE33FEEC33FCEE9DECAA
:10002300984005FCEE9DFE0FD5F0E9E4CEFD22EDF0
:10003300F8F5F0EE8420D21CFEADF075F008EF2F3A
:10004300FFED33FD4007985006D5F0F222C398FD2B
:050053000FD5F0EA22C8
:1002BB00C2D5E830E70FB2D5E4C39BFBE49AFAE46E
:1002CB0099F9E498F8EC30E717B2D51202F1120065
:1002DB0094E4C39BFBE49AFAE499F9E498F880035D
:1002EB0012009430D50DE4C39FFFE49EFEE49DFD08
:0402FB00E49CFC2261
:10023B000202FFE493A3F8E493A34003F68001F2D8
:10024B0008DFF48029E493A3F85407240CC8C333C4
:10025B00C4540F4420C8834004F456800146F6DF93
:10026B00E4800B0102040810204080900359E47EC7
:10027B00019360BCA3FF543F30E509541FFEE49388
:10028B00A360010ECF54C025E060A840B8E493A34F
:10029B00FAE493A3F8E493A3C8C582C8CAC583CA7A
:1002AB00F0A3C8C582C8CAC583CADFE9DEE780BE32
:01036100009B
:1000580075F008758200EF2FFFEE33FECD33CDCC5F
:1000680033CCC58233C5829BED9AEC99E5829840E2
:100078000CF582EE9BFEED9AFDEC99FC0FD5F0D6BF
:10008800E4CEFBE4CDFAE4CCF9A88222B800C1B9E9
:100098000059BA002DEC8BF084CFCECDFCE5F0CB27
:1000A800F97818EF2FFFEE33FEED33FDEC33FCEB60
:1000B80033FB10D703994004EB99FB0FD8E5E4F91B
:1000C800FA227818EF2FFFEE33FEED33FDEC33FC08
:1000D800C933C910D7059BE99A4007EC9BFCE99AFC
:1000E800F90FD8E0E4C9FAE4CCFB2275F010EF2F41
:1000F800FFEE33FEED33FDCC33CCC833C810D70741
:100108009BEC9AE899400AED9BFDEC9AFCE899F87B
:0E0118000FD5F0DAE4CDFBE4CCFAE4C8F9220E
:00000001FF
