:0B0C20003F065B4F666D7D077F6F771E
:100BCF0001140002100000021200000208462D015D
:100BDF000A00010B00010C00010D00010E00010FB6
:010BEF000005
:0B0C1500EF1FAC0670011E4C70F622B1
:100C0500438901758CFC758A18D2A9D2AFD28C2282
:070C2B00D2AFD2A8D288224B
:070C3200D2AFD2AAD28A2240
:1009AF00AE08AF09E4FCFD7BA07A8CF9F8120B8B33
:1009BF00E47B03FAF9F8120B8BAF038F0AAE08AF83
:1009CF00097C0E7D101208007C007D0A1208008D34
:1009DF000BAE08AF097C027D581208007C007D0623
:1009EF001208008D0CAE08AF097C007D3C12080088
:1009FF007C007D0A1208008D0DAE08AF097C007DCA
:100A0F000A1208007C007D061208008D0EAE08AF9A
:0B0A1F00097C007D0A1208008D0F22E8
:100A2A00E4FDED14601A14602114602814602F1478
:100A3A00603624057040C2A4C2A3C2A2E50A80306F
:100A4A00D2A2C2A4C2A3E50B8026C2A2D2A3C2A488
:100A5A00E50C801CD2A3D2A2C2A4E50D8012C2A3C7
:100A6A00C2A2D2A4E50E8008D2A2C2A3D2A4E50FE4
:100A7A00900C2093F5807F057E00120C15E4F5801A
:060A8A000DED6406709CF6
:010A90002243
:100BF100120C2B120C32120C0585081285091312E6
:040C01000A2A80FB40
:03000B00020A9155
:100A9100C0E0C0F0C083C082C0D075D000C000C02B
:100AA10001C002C003C004C005C006C007758CFCAC
:100AB100758A180511E511700205106464451070FE
:100AC1000FF510F5110509E509700205081209AFC6
:100AD100120A2AD007D006D005D004D003D002D004
:0E0AE10001D000D0D0D082D083D0F0D0E0324F
:03000300020B41AC
:100B4100C0E0C083C082C0D075D000C004C005C061
:100B510006C007759001308C04C28C8019208C1658
:100B6100E5094508600EE514B401098512088513ED
:100B710009751400D28C120A2AD007D006D005D0EC
:0A0B810004D0D0D082D083D0E0323F
:03001300020AEFEF
:100AEF00C0E0C0F0C083C082C0D075D000C000C0CD
:100AFF0001C002C003C004C005C006C007850812AC
:100B0F00850913751401759002750800750900C2E7
:100B1F008C1209AF120A2AD007D006D005D004D004
:100B2F0003D002D001D000D0D0D082D083D0F0D06B
:020B3F00E032A2
:03000000020923CF
:0C092300787FE4F6D8FD75811402096AA3
:10080000BC000BBE0029EF8DF084FFADF022E4CCDC
:10081000F875F008EF2FFFEE33FEEC33FCEE9DECA5
:10082000984005FCEE9DFE0FD5F0E9E4CEFD22EDEB
:10083000F8F5F0EE8420D21CFEADF075F008EF2F35
:10084000FFED33FD4007985006D5F0F222C398FD26
:050850000FD5F0EA22C3
:100B8B00C2D5E830E70FB2D5E4C39BFBE49AFAE495
:100B9B0099F9E498F8EC30E717B2D5120BC11208AB
:100BAB0091E4C39BFBE49AFAE499F9E498F8800387
:100BBB0012089130D50DE4C39FFFE49EFEE49DFD2A
:040BCB00E49CFC2288
:10092F00020BF1E493A3F8E493A34003F68001F2E2
:10093F0008DFF48029E493A3F85407240CC8C333C9
:10094F00C4540F4420C8834004F456800146F6DF98
:10095F00E4800B0102040810204080900BCFE47E4E
:10096F00019360BCA3FF543F30E509541FFEE4938D
:10097F00A360010ECF54C025E060A840B8E493A354
:10098F00FAE493A3F8E493A3C8C582C8CAC583CA7F
:10099F00F0A3C8C582C8CAC583CADFE9DEE780BE37
:010BF0000004
:1008550075F008758200EF2FFFEE33FECD33CDCC5A
:1008650033CCC58233C5829BED9AEC99E5829840DD
:100875000CF582EE9BFEED9AFDEC99FC0FD5F0D6BA
:10088500E4CEFBE4CDFAE4CCF9A88222B800C1B9E4
:100895000059BA002DEC8BF084CFCECDFCE5F0CB22
:1008A500F97818EF2FFFEE33FEED33FDEC33FCEB5B
:1008B50033FB10D703994004EB99FB0FD8E5E4F916
:1008C500FA227818EF2FFFEE33FEED33FDEC33FC03
:1008D500C933C910D7059BE99A4007EC9BFCE99AF7
:1008E500F90FD8E0E4C9FAE4CCFB2275F010EF2F3C
:1008F500FFEE33FEED33FDCC33CCC833C810D7073C
:100905009BEC9AE899400AED9BFDEC9AFCE899F876
:0E0915000FD5F0DAE4CDFBE4CCFAE4C8F92209
:00000001FF
