:0B01EB003F065B4F666D7D077F6F775E
:0402000002080000F0
:0401DC007F0A7E0018
:0B01E000EF1FAC0670011E4C70F622F1
:10008F00E4FBFAEA7066EB1460161460261460360F
:10009F0024037058C2A4C2A3C2A2AE08AF0980370E
:1000AF00D2A2C2A4C2A3AE08AF097C007D0A12017E
:1000BF00878024C2A2D2A3C2A4AE08AF097C007D60
:1000CF00641201878011D2A3D2A2C2A4AE08AF09D5
:1000DF007C037DE81201877C007D0A12018774EB97
:1000EF002DF58274013CF583E493F5807F017E004A
:1000FF001201E0E4F5800BBB00010AEB64044A70C7
:01010F00826D
:0101100022CC
:0A01F600758901758CDB758AFF2204
:100111001201F612008F20B10B1201DC20B105D2C1
:100121008C30B1FD20B00B1201DC20B005C28C3047
:10013100B0FD20B2141201DC20B20E208C0B050997
:10014100E5097002050830B2FD20B3141201DC206C
:10015100B30E208C0BE50915097002150830B3FDAB
:10016100308D10758CDB758AFFC28D0509E509702C
:10017100020508E509640F7004E50864277094F529
:0601810008F5090201145B
:03000000020003F8
:0C000300787FE4F6D8FD75810902004A00
:10018700BC000BBE0029EF8DF084FFADF022E4CC5C
:10019700F875F008EF2FFFEE33FEEC33FCEE9DEC25
:1001A700984005FCEE9DFE0FD5F0E9E4CEFD22ED6B
:1001B700F8F5F0EE8420D21CFEADF075F008EF2FB5
:1001C700FFED33FD4007985006D5F0F222C398FDA6
:0501D7000FD5F0EA2243
:10000F00020111E493A3F8E493A34003F68001F2F5
:10001F0008DFF48029E493A3F85407240CC8C333F2
:10002F00C4540F4420C8834004F456800146F6DFC1
:10003F00E4800B0102040810204080900200E47E4F
:10004F00019360BCA3FF543F30E509541FFEE493B6
:10005F00A360010ECF54C025E060A840B8E493A37D
:10006F00FAE493A3F8E493A3C8C582C8CAC583CAA8
:10007F00F0A3C8C582C8CAC583CADFE9DEE780BE60
:0102040000F9
:00000001FF
