:0B011C003F065B4F666D7D077F6F772D
:0B011100EF1FAC0670011E4C70F622C0
:10008800E4F50975900FE590640F60707F647E0059
:10009800120111E590640F606375900FAF90EF2423
:1000A800F5601024FE601114601324077012E4F543
:1000B8000A800D750A018008750A028003750A0313
:1000C8007590F0AF90EF2430600C24F0600C243071
:1000D800700E7404800674088002740C250AF50AF0
:1000E800E59064F060160509C3E50994F4748094FA
:0C00F8008150097F647E0012011180E439
:0101040022D8
:06000300C2A2C2A3C2A4C8
:10000900120088E4F508E508B40800505D90001D69
:10001900F828287302003502003D02004502004D10
:1000290002005502005D02006502006DC2A4C2A370
:10003900C2A28036D2A2C2A4C2A3802EC2A2D2A3D7
:10004900C2A48026D2A3D2A2C2A4801EC2A3C2A2E5
:10005900D2A48016D2A2C2A3D2A4800EC2A2D2A4D4
:10006900D2A38006D2A4D2A3D2A2E50A90011C93FE
:0F007900F580E4F5800508E5086408708980814A
:03000000020105F5
:0C010500787FE4F6D8FD75810A02000343
:00000001FF
