:10051C00313233263435362537383928301B0D2700
:08052C000E0C0D090B0307067C
:1004600004430000000010470101010101010101E6
:100470000101010101010101C1001021010101017E
:10048000010101010101010101010101013100012D
:1004900032001033FFFFFFFFFFFFFFFFFFFFFFFFF3
:0604A000FFFFFFFFC10198
:10053400D2AF758901758CFC758A67D2A9D28C12E9
:04054400033280FB03
:1004EB008F0E8E0D8D0C8C0BC2AFE47FEC7E0FFD4F
:1004FB00FCAB0EAA0DA90CA80B120020E47B687AAA
:10050B0001F9F81204A78F468E458D448C43D2AF68
:01051B0022BD
:0E054800C2AFE4F546F545F544F543D2AF22C7
:0202B2008F0AB1
:1002B400C3E50A648094B0403DD3E50A648094B9F0
:1002C4005034200013EF3395E0FEEF24D0FFEE34DA
:1002D400FFFE7C017D688013AF0AEF3395E0FEEFEB
:1002E40024D0FFEE34FFFE7CFE7D9812000EEE3328
:1002F40095E0FDFC802CE50AB42603C20022E50A41
:10030400B42803D20022E50AB4250A7F5A7E007D70
:10031400007C00800DE50AB4270B7FA67EFF7DFFDD
:0D0324007CFF0204EBE50AB41B0312054840
:0103310022A9
:10033200E4F508E4F509E50825E025E02447250968
:10034200F8E6FFE50825E025E024212509F8E6FE88
:100352006F603DEE7020E50825E025E0241CF58263
:10036200E43405F583E5822509F582E43583F583D6
:10037200E493FF1202B2E50825E025E024472509AF
:10038200F8E6FFE50825E025E024212509F8A6077F
:100392000509E509C39404409D0508E508C39404D2
:0203A200409188
:0103A4002236
:1003A500AF46AE45AD44AC43EC4D4E4F6060E4FF07
:1003B500FEFDFCAB46AA45A944A843D312006F40F5
:1003C5001F053153310774FF2546F546E54534FFD2
:1003D500F545E54434FFF544E54334FFF543801E18
:1003E5001531533107E4FAF9F8E5462401F546EAF3
:1003F5003545F545E93544F544E83543F543AF90D2
:100405005307F0E53190052C9342078F90224390D6
:010415000FD7
:0104160022C3
:10015300E53225E025E02433F8E625E0FFA2A4E418
:10016300334FFFE53225E025E02433F8A607E532D7
:1001730025E025E02434F8E625E0FFA2A5E4334F8B
:10018300FFE53225E025E02434F8A607E53225E033
:1001930025E02435F8E625E0FFA2A6E4334FFFE58A
:1001A3003225E025E02435F8A607E53225E025E0F1
:1001B3002436F8E625E0FFA2A7E4334FFFE5322516
:1001C300E025E02436F8A607E4FFE53225E025E044
:1001D30024332FF8E6540FFE700EE53225E025E0B8
:1001E30024472FF8E4F6800FBE0F0CE53225E025F7
:1001F300E024472FF876010FBF04CF0532533203B3
:10020300E53214600F14601114601324037013D2C9
:10021300A0C2A322D2A3C2A222D2A2C2A122D2A14D
:02022300C2A077
:0102250022B6
:03000B00020417D5
:10041700C0E0C0F0C083C082C0D075D000C000C0AB
:0D04270001C002C003C004C005C006C0072C
:10043400758CF8758ACD120153B2012001031203A1
:01044400A512
:10044500D007D006D005D004D003D002D001D0000B
:0B045500D0D0D082D083D0F0D0E032B5
:03000000020226D3
:0C022600787FE4F6D8FD75815602026D69
:10000E00EF8DF0A4A8F0CF8CF0A428CE8DF0A42E06
:02001E00FE22C0
:10002000E88FF0A4CC8BF0A42CFCE98EF0A42CFC7F
:100030008AF0EDA42CFCEA8EF0A4CDA8F08BF0A4FD
:100040002DCC3825F0FDE98FF0A42CCD35F0FCEB5C
:100050008EF0A4FEA9F0EB8FF0A4CFC5F02ECD3921
:0F006000FEE43CFCEAA42DCE35F0FDE43CFC228E
:1004A700C2D5E830E70FB2D5E4C39BFBE49AFAE480
:1004B70099F9E498F8EC30E717B2D51204DD120089
:1004C700C1E4C39BFBE49AFAE499F9E498F8800342
:1004D7001200C130D50DE4C39FFFE49EFEE49DFDED
:0404E700E49CFC2273
:10006F00EB9FF5F0EA9E42F0E99D42F0EC6480C808
:06007F0064809845F022A8
:10023200020534E493A3F8E493A34003F68001F2A9
:1002420008DFF48029E493A3F85407240CC8C333CD
:10025200C4540F4420C8834004F456800146F6DF9C
:10026200E4800B0102040810204080900460E47EC8
:10027200019360BCA3FF543F30E509541FFEE49391
:10028200A360010ECF54C025E060A840B8E493A358
:10029200FAE493A3F8E493A3C8C582C8CAC583CA83
:1002A200F0A3C8C582C8CAC583CADFE9DEE780BE3B
:0104A6000055
:1000850075F008758200EF2FFFEE33FECD33CDCC32
:1000950033CCC58233C5829BED9AEC99E5829840B5
:1000A5000CF582EE9BFEED9AFDEC99FC0FD5F0D692
:1000B500E4CEFBE4CDFAE4CCF9A88222B800C1B9BC
:1000C5000059BA002DEC8BF084CFCECDFCE5F0CBFA
:1000D500F97818EF2FFFEE33FEED33FDEC33FCEB33
:1000E50033FB10D703994004EB99FB0FD8E5E4F9EE
:1000F500FA227818EF2FFFEE33FEED33FDEC33FCDB
:10010500C933C910D7059BE99A4007EC9BFCE99ACE
:10011500F90FD8E0E4C9FAE4CCFB2275F010EF2F13
:10012500FFEE33FEED33FDCC33CCC833C810D70713
:100135009BEC9AE899400AED9BFDEC9AFCE899F84E
:0E0145000FD5F0DAE4CDFBE4CCFAE4C8F922E1
:00000001FF
