:0B0101003F065B4F666D7D077F6F7748
:060003000109010108FFE4
:10009A00E4FF7E01D2AF758901758CF8758ACDD2DD
:1000AA00A9D28CC2A4C2A3C2A290010193F580EE88
:1000BA00650960FBEE700C0FBF0A01FFEF900101AA
:0700CA0093F580AE0980E808
:03000B000200D11F
:0900D100C0E0C0D075D000C007EA
:1000DA00758CF8758ACDE50825E0FFA2B1E4334FA7
:1000EA00F508B4FF057509018006E5087002F509EF
:0700FA00D007D0D0D0E032A6
:0300000002000EED
:0C000E00787FE4F6D8FD758109020055EA
:10001A0002009AE493A3F8E493A34003F68001F262
:10002A0008DFF48029E493A3F85407240CC8C333E7
:10003A00C4540F4420C8834004F456800146F6DFB6
:10004A00E4800B0102040810204080900003E47E43
:10005A00019360BCA3FF543F30E509541FFEE493AB
:10006A00A360010ECF54C025E060A840B8E493A372
:10007A00FAE493A3F8E493A3C8C582C8CAC583CA9D
:10008A00F0A3C8C582C8CAC583CADFE9DEE780BE55
:0100090000F6
:00000001FF
